{
  "contractName": "e_commercedApp",
  "abi": [
    {
      "inputs": [],
      "stateMutability": "nonpayable",
      "type": "constructor"
    },
    {
      "anonymous": false,
      "inputs": [
        {
          "indexed": false,
          "internalType": "address",
          "name": "userAddress",
          "type": "address"
        },
        {
          "indexed": false,
          "internalType": "string",
          "name": "username",
          "type": "string"
        }
      ],
      "name": "NewUser",
      "type": "event"
    },
    {
      "anonymous": false,
      "inputs": [
        {
          "indexed": false,
          "internalType": "address",
          "name": "userAddress",
          "type": "address"
        },
        {
          "indexed": false,
          "internalType": "uint256",
          "name": "orderId",
          "type": "uint256"
        }
      ],
      "name": "OrderPlaced",
      "type": "event"
    },
    {
      "anonymous": false,
      "inputs": [
        {
          "indexed": false,
          "internalType": "address",
          "name": "userAddress",
          "type": "address"
        },
        {
          "indexed": false,
          "internalType": "uint256",
          "name": "orderId",
          "type": "uint256"
        }
      ],
      "name": "OrderRefunded",
      "type": "event"
    },
    {
      "anonymous": false,
      "inputs": [
        {
          "indexed": false,
          "internalType": "address",
          "name": "userAddress",
          "type": "address"
        },
        {
          "indexed": false,
          "internalType": "uint256",
          "name": "orderId",
          "type": "uint256"
        }
      ],
      "name": "OrderReturned",
      "type": "event"
    },
    {
      "anonymous": false,
      "inputs": [
        {
          "indexed": false,
          "internalType": "address",
          "name": "userAddress",
          "type": "address"
        },
        {
          "indexed": false,
          "internalType": "uint256",
          "name": "productId",
          "type": "uint256"
        },
        {
          "indexed": false,
          "internalType": "string",
          "name": "comment",
          "type": "string"
        },
        {
          "indexed": false,
          "internalType": "uint256",
          "name": "rating",
          "type": "uint256"
        }
      ],
      "name": "ProductReviewed",
      "type": "event"
    },
    {
      "anonymous": false,
      "inputs": [
        {
          "indexed": false,
          "internalType": "address",
          "name": "userAddress",
          "type": "address"
        },
        {
          "indexed": false,
          "internalType": "string",
          "name": "productUrl",
          "type": "string"
        }
      ],
      "name": "ProductSharedOnSocialMedia",
      "type": "event"
    },
    {
      "inputs": [],
      "name": "maxProducts",
      "outputs": [
        {
          "internalType": "uint256",
          "name": "",
          "type": "uint256"
        }
      ],
      "stateMutability": "view",
      "type": "function"
    },
    {
      "inputs": [],
      "name": "maxUsers",
      "outputs": [
        {
          "internalType": "uint256",
          "name": "",
          "type": "uint256"
        }
      ],
      "stateMutability": "view",
      "type": "function"
    },
    {
      "inputs": [],
      "name": "owner",
      "outputs": [
        {
          "internalType": "address",
          "name": "",
          "type": "address"
        }
      ],
      "stateMutability": "view",
      "type": "function"
    },
    {
      "inputs": [
        {
          "internalType": "address",
          "name": "",
          "type": "address"
        },
        {
          "internalType": "uint256",
          "name": "",
          "type": "uint256"
        }
      ],
      "name": "productReviews",
      "outputs": [
        {
          "internalType": "string",
          "name": "comment",
          "type": "string"
        },
        {
          "internalType": "uint256",
          "name": "rating",
          "type": "uint256"
        }
      ],
      "stateMutability": "view",
      "type": "function"
    },
    {
      "inputs": [
        {
          "internalType": "uint256",
          "name": "",
          "type": "uint256"
        }
      ],
      "name": "products",
      "outputs": [
        {
          "internalType": "string",
          "name": "name",
          "type": "string"
        },
        {
          "internalType": "string",
          "name": "description",
          "type": "string"
        },
        {
          "internalType": "uint256",
          "name": "price",
          "type": "uint256"
        }
      ],
      "stateMutability": "view",
      "type": "function"
    },
    {
      "inputs": [],
      "name": "totalProducts",
      "outputs": [
        {
          "internalType": "uint256",
          "name": "",
          "type": "uint256"
        }
      ],
      "stateMutability": "view",
      "type": "function"
    },
    {
      "inputs": [],
      "name": "totalUsers",
      "outputs": [
        {
          "internalType": "uint256",
          "name": "",
          "type": "uint256"
        }
      ],
      "stateMutability": "view",
      "type": "function"
    },
    {
      "inputs": [
        {
          "internalType": "address",
          "name": "",
          "type": "address"
        },
        {
          "internalType": "uint256",
          "name": "",
          "type": "uint256"
        }
      ],
      "name": "userCart",
      "outputs": [
        {
          "internalType": "uint256",
          "name": "",
          "type": "uint256"
        }
      ],
      "stateMutability": "view",
      "type": "function"
    },
    {
      "inputs": [
        {
          "internalType": "address",
          "name": "",
          "type": "address"
        },
        {
          "internalType": "uint256",
          "name": "",
          "type": "uint256"
        }
      ],
      "name": "userDiscounts",
      "outputs": [
        {
          "internalType": "uint256",
          "name": "",
          "type": "uint256"
        }
      ],
      "stateMutability": "view",
      "type": "function"
    },
    {
      "inputs": [
        {
          "internalType": "address",
          "name": "",
          "type": "address"
        },
        {
          "internalType": "uint256",
          "name": "",
          "type": "uint256"
        }
      ],
      "name": "userOrders",
      "outputs": [
        {
          "internalType": "uint256",
          "name": "orderId",
          "type": "uint256"
        },
        {
          "internalType": "uint256",
          "name": "productId",
          "type": "uint256"
        },
        {
          "internalType": "uint256",
          "name": "quantity",
          "type": "uint256"
        },
        {
          "internalType": "bool",
          "name": "isReturned",
          "type": "bool"
        },
        {
          "internalType": "bool",
          "name": "isRefunded",
          "type": "bool"
        }
      ],
      "stateMutability": "view",
      "type": "function"
    },
    {
      "inputs": [
        {
          "internalType": "address",
          "name": "",
          "type": "address"
        }
      ],
      "name": "users",
      "outputs": [
        {
          "internalType": "string",
          "name": "username",
          "type": "string"
        },
        {
          "internalType": "uint256",
          "name": "age",
          "type": "uint256"
        },
        {
          "internalType": "address",
          "name": "walletAddress",
          "type": "address"
        }
      ],
      "stateMutability": "view",
      "type": "function"
    },
    {
      "inputs": [
        {
          "internalType": "string",
          "name": "_username",
          "type": "string"
        },
        {
          "internalType": "uint256",
          "name": "_age",
          "type": "uint256"
        }
      ],
      "name": "addUser",
      "outputs": [],
      "stateMutability": "nonpayable",
      "type": "function"
    },
    {
      "inputs": [],
      "name": "getUserInfo",
      "outputs": [
        {
          "internalType": "string",
          "name": "",
          "type": "string"
        },
        {
          "internalType": "uint256",
          "name": "",
          "type": "uint256"
        },
        {
          "internalType": "address",
          "name": "",
          "type": "address"
        }
      ],
      "stateMutability": "view",
      "type": "function"
    },
    {
      "inputs": [
        {
          "internalType": "string",
          "name": "_name",
          "type": "string"
        },
        {
          "internalType": "string",
          "name": "_description",
          "type": "string"
        },
        {
          "internalType": "uint256",
          "name": "_price",
          "type": "uint256"
        }
      ],
      "name": "addProduct",
      "outputs": [],
      "stateMutability": "nonpayable",
      "type": "function"
    },
    {
      "inputs": [
        {
          "internalType": "uint256",
          "name": "_productId",
          "type": "uint256"
        }
      ],
      "name": "getProductInfo",
      "outputs": [
        {
          "internalType": "string",
          "name": "",
          "type": "string"
        },
        {
          "internalType": "string",
          "name": "",
          "type": "string"
        },
        {
          "internalType": "uint256",
          "name": "",
          "type": "uint256"
        }
      ],
      "stateMutability": "view",
      "type": "function"
    },
    {
      "inputs": [
        {
          "internalType": "uint256",
          "name": "_productId",
          "type": "uint256"
        },
        {
          "internalType": "uint256",
          "name": "_quantity",
          "type": "uint256"
        }
      ],
      "name": "addToCart",
      "outputs": [],
      "stateMutability": "nonpayable",
      "type": "function"
    },
    {
      "inputs": [
        {
          "internalType": "uint256",
          "name": "_productId",
          "type": "uint256"
        },
        {
          "internalType": "uint256",
          "name": "_quantity",
          "type": "uint256"
        }
      ],
      "name": "removeFromCart",
      "outputs": [],
      "stateMutability": "nonpayable",
      "type": "function"
    },
    {
      "inputs": [],
      "name": "placeOrder",
      "outputs": [],
      "stateMutability": "nonpayable",
      "type": "function"
    },
    {
      "inputs": [
        {
          "internalType": "uint256",
          "name": "_orderId",
          "type": "uint256"
        }
      ],
      "name": "returnOrder",
      "outputs": [],
      "stateMutability": "nonpayable",
      "type": "function"
    },
    {
      "inputs": [
        {
          "internalType": "uint256",
          "name": "_orderId",
          "type": "uint256"
        }
      ],
      "name": "refundOrder",
      "outputs": [],
      "stateMutability": "nonpayable",
      "type": "function"
    },
    {
      "inputs": [
        {
          "internalType": "string",
          "name": "_productUrl",
          "type": "string"
        }
      ],
      "name": "shareProductOnSocialMedia",
      "outputs": [],
      "stateMutability": "nonpayable",
      "type": "function"
    },
    {
      "inputs": [
        {
          "internalType": "uint256",
          "name": "_productId",
          "type": "uint256"
        },
        {
          "internalType": "string",
          "name": "_comment",
          "type": "string"
        },
        {
          "internalType": "uint256",
          "name": "_rating",
          "type": "uint256"
        }
      ],
      "name": "addProductReview",
      "outputs": [],
      "stateMutability": "nonpayable",
      "type": "function"
    }
  ],
  "bytecode": "0x60806040526103e86008556103e8600a5534801561001b575f80fd5b503360065f6101000a81548173ffffffffffffffffffffffffffffffffffffffff021916908373ffffffffffffffffffffffffffffffffffffffff16021790555061290e806100695f395ff3fe608060405234801561000f575f80fd5b5060043610610140575f3560e01c8063a77c414e116100b6578063cadff3581161007a578063cadff35814610391578063ddcde4d7146103af578063e1b0e802146103df578063f28ea1c1146103fd578063f5c609e014610419578063f6ec855a1461042357610140565b8063a77c414e146102c4578063a87430ba146102f4578063b40a515a14610326578063bff1f9e114610357578063c018c4571461037557610140565b8063780d27b111610108578063780d27b1146101d457806379a85e6c146101f05780637acc0b2014610222578063856652e9146102545780638da5cb5b146102885780639b9d326d146102a657610140565b80631c5220c21461014457806335b191cb146101605780633ab9bbb61461017c5780634c2c5a5d146101985780635d8d1585146101b4575b5f80fd5b61015e60048036038101906101599190611ac7565b61043f565b005b61017a60048036038101906101759190611b21565b61067e565b005b61019660048036038101906101919190611b68565b6106ba565b005b6101b260048036038101906101ad9190611ba6565b6107a7565b005b6101bc610906565b6040516101cb93929190611cda565b60405180910390f35b6101ee60048036038101906101e99190611d16565b610b28565b005b61020a60048036038101906102059190611d16565b610d39565b60405161021993929190611d41565b60405180910390f35b61023c60048036038101906102379190611d16565b610ee6565b60405161024b93929190611d41565b60405180910390f35b61026e60048036038101906102699190611dae565b611018565b60405161027f959493929190611e06565b60405180910390f35b61029061106e565b60405161029d9190611e57565b60405180910390f35b6102ae611093565b6040516102bb9190611e70565b60405180910390f35b6102de60048036038101906102d99190611dae565b611099565b6040516102eb9190611e70565b60405180910390f35b61030e60048036038101906103099190611e89565b6110b9565b60405161031d93929190611cda565b60405180910390f35b610340600480360381019061033b9190611dae565b611183565b60405161034e929190611eb4565b60405180910390f35b61035f611234565b60405161036c9190611e70565b60405180910390f35b61038f600480360381019061038a9190611d16565b61123a565b005b61039961144d565b6040516103a69190611e70565b60405180910390f35b6103c960048036038101906103c49190611dae565b611453565b6040516103d69190611e70565b60405180910390f35b6103e7611473565b6040516103f49190611e70565b60405180910390f35b61041760048036038101906104129190611ee2565b611479565b005b6104216115e5565b005b61043d60048036038101906104389190611b68565b61180b565b005b3373ffffffffffffffffffffffffffffffffffffffff165f803373ffffffffffffffffffffffffffffffffffffffff1673ffffffffffffffffffffffffffffffffffffffff1681526020019081526020015f206002015f9054906101000a900473ffffffffffffffffffffffffffffffffffffffff1673ffffffffffffffffffffffffffffffffffffffff160361050b576040517f08c379a000000000000000000000000000000000000000000000000000000000815260040161050290611fb4565b60405180910390fd5b60085460075410610551576040517f08c379a000000000000000000000000000000000000000000000000000000000815260040161054890612042565b60405180910390fd5b5f60405180606001604052808481526020018381526020013373ffffffffffffffffffffffffffffffffffffffff168152509050805f803373ffffffffffffffffffffffffffffffffffffffff1673ffffffffffffffffffffffffffffffffffffffff1681526020019081526020015f205f820151815f0190816105d5919061225a565b50602082015181600101556040820151816002015f6101000a81548173ffffffffffffffffffffffffffffffffffffffff021916908373ffffffffffffffffffffffffffffffffffffffff16021790555090505060075f81548092919061063b90612356565b91905055507ffa327e9a92777f9e2f9789db1c446a1826dabd3c4b24e2c1c9fe45914eaabbf2338460405161067192919061239d565b60405180910390a1505050565b7fe45d289bbee8402e5795b6431c8e2e3bc4f8b02c7a523c606768d9991e6a97fa33826040516106af92919061239d565b60405180910390a150565b5f81116106fc576040517f08c379a00000000000000000000000000000000000000000000000000000000081526004016106f390612415565b60405180910390fd5b600954821115610741576040517f08c379a00000000000000000000000000000000000000000000000000000000081526004016107389061247d565b60405180910390fd5b8060035f3373ffffffffffffffffffffffffffffffffffffffff1673ffffffffffffffffffffffffffffffffffffffff1681526020019081526020015f205f8481526020019081526020015f205f82825461079c919061249b565b925050819055505050565b6009548311156107ec576040517f08c379a00000000000000000000000000000000000000000000000000000000081526004016107e39061247d565b60405180910390fd5b600181101580156107fe575060058111155b61083d576040517f08c379a000000000000000000000000000000000000000000000000000000000815260040161083490612518565b60405180910390fd5b5f60405180604001604052808481526020018381525090508060055f3373ffffffffffffffffffffffffffffffffffffffff1673ffffffffffffffffffffffffffffffffffffffff1681526020019081526020015f205f8681526020019081526020015f205f820151815f0190816108b5919061225a565b50602082015181600101559050507f657c9eb80b835f3b237e30ab40f4f61d4d0b3271d80dd897030d733879398820338585856040516108f89493929190612536565b60405180910390a150505050565b60605f803373ffffffffffffffffffffffffffffffffffffffff165f803373ffffffffffffffffffffffffffffffffffffffff1673ffffffffffffffffffffffffffffffffffffffff1681526020019081526020015f206002015f9054906101000a900473ffffffffffffffffffffffffffffffffffffffff1673ffffffffffffffffffffffffffffffffffffffff16146109d6576040517f08c379a00000000000000000000000000000000000000000000000000000000081526004016109cd906125ca565b60405180910390fd5b5f805f3373ffffffffffffffffffffffffffffffffffffffff1673ffffffffffffffffffffffffffffffffffffffff1681526020019081526020015f206040518060600160405290815f82018054610a2d9061208d565b80601f0160208091040260200160405190810160405280929190818152602001828054610a599061208d565b8015610aa45780601f10610a7b57610100808354040283529160200191610aa4565b820191905f5260205f20905b815481529060010190602001808311610a8757829003601f168201915b5050505050815260200160018201548152602001600282015f9054906101000a900473ffffffffffffffffffffffffffffffffffffffff1673ffffffffffffffffffffffffffffffffffffffff1673ffffffffffffffffffffffffffffffffffffffff16815250509050805f01518160200151826040015193509350935050909192565b5f8111610b6a576040517f08c379a0000000000000000000000000000000000000000000000000000000008152600401610b6190612632565b60405180910390fd5b8060025f3373ffffffffffffffffffffffffffffffffffffffff1673ffffffffffffffffffffffffffffffffffffffff1681526020019081526020015f205f8381526020019081526020015f205f015414610bfa576040517f08c379a0000000000000000000000000000000000000000000000000000000008152600401610bf19061269a565b60405180910390fd5b60025f3373ffffffffffffffffffffffffffffffffffffffff1673ffffffffffffffffffffffffffffffffffffffff1681526020019081526020015f205f8281526020019081526020015f206003015f9054906101000a900460ff1615610c96576040517f08c379a0000000000000000000000000000000000000000000000000000000008152600401610c8d90612702565b60405180910390fd5b600160025f3373ffffffffffffffffffffffffffffffffffffffff1673ffffffffffffffffffffffffffffffffffffffff1681526020019081526020015f205f8381526020019081526020015f206003015f6101000a81548160ff0219169083151502179055507ff5e5aba317ffbc9b57df3dd11ebdaee8999f81da70bd6c147c7d4ce92ad47d443382604051610d2e929190612720565b60405180910390a150565b6060805f600954841115610d82576040517f08c379a0000000000000000000000000000000000000000000000000000000008152600401610d799061247d565b60405180910390fd5b5f60015f8681526020019081526020015f206040518060600160405290815f82018054610dae9061208d565b80601f0160208091040260200160405190810160405280929190818152602001828054610dda9061208d565b8015610e255780601f10610dfc57610100808354040283529160200191610e25565b820191905f5260205f20905b815481529060010190602001808311610e0857829003601f168201915b50505050508152602001600182018054610e3e9061208d565b80601f0160208091040260200160405190810160405280929190818152602001828054610e6a9061208d565b8015610eb55780601f10610e8c57610100808354040283529160200191610eb5565b820191905f5260205f20905b815481529060010190602001808311610e9857829003601f168201915b505050505081526020016002820154815250509050805f015181602001518260400151935093509350509193909250565b6001602052805f5260405f205f91509050805f018054610f059061208d565b80601f0160208091040260200160405190810160405280929190818152602001828054610f319061208d565b8015610f7c5780601f10610f5357610100808354040283529160200191610f7c565b820191905f5260205f20905b815481529060010190602001808311610f5f57829003601f168201915b505050505090806001018054610f919061208d565b80601f0160208091040260200160405190810160405280929190818152602001828054610fbd9061208d565b80156110085780601f10610fdf57610100808354040283529160200191611008565b820191905f5260205f20905b815481529060010190602001808311610feb57829003601f168201915b5050505050908060020154905083565b6002602052815f5260405f20602052805f5260405f205f9150915050805f015490806001015490806002015490806003015f9054906101000a900460ff16908060030160019054906101000a900460ff16905085565b60065f9054906101000a900473ffffffffffffffffffffffffffffffffffffffff1681565b60095481565b6003602052815f5260405f20602052805f5260405f205f91509150505481565b5f602052805f5260405f205f91509050805f0180546110d79061208d565b80601f01602080910402602001604051908101604052809291908181526020018280546111039061208d565b801561114e5780601f106111255761010080835404028352916020019161114e565b820191905f5260205f20905b81548152906001019060200180831161113157829003601f168201915b505050505090806001015490806002015f9054906101000a900473ffffffffffffffffffffffffffffffffffffffff16905083565b6005602052815f5260405f20602052805f5260405f205f9150915050805f0180546111ad9061208d565b80601f01602080910402602001604051908101604052809291908181526020018280546111d99061208d565b80156112245780601f106111fb57610100808354040283529160200191611224565b820191905f5260205f20905b81548152906001019060200180831161120757829003601f168201915b5050505050908060010154905082565b60075481565b5f811161127c576040517f08c379a000000000000000000000000000000000000000000000000000000000815260040161127390612632565b60405180910390fd5b8060025f3373ffffffffffffffffffffffffffffffffffffffff1673ffffffffffffffffffffffffffffffffffffffff1681526020019081526020015f205f8381526020019081526020015f205f01541461130c576040517f08c379a00000000000000000000000000000000000000000000000000000000081526004016113039061269a565b60405180910390fd5b60025f3373ffffffffffffffffffffffffffffffffffffffff1673ffffffffffffffffffffffffffffffffffffffff1681526020019081526020015f205f8281526020019081526020015f2060030160019054906101000a900460ff16156113a9576040517f08c379a00000000000000000000000000000000000000000000000000000000081526004016113a090612702565b60405180910390fd5b600160025f3373ffffffffffffffffffffffffffffffffffffffff1673ffffffffffffffffffffffffffffffffffffffff1681526020019081526020015f205f8381526020019081526020015f2060030160016101000a81548160ff0219169083151502179055507f3704a95809ec02dc39b033c940b7b9a97fdbf9785d2a8b713927c42c7a9d26243382604051611442929190612720565b60405180910390a150565b600a5481565b6004602052815f5260405f20602052805f5260405f205f91509150505481565b60085481565b60065f9054906101000a900473ffffffffffffffffffffffffffffffffffffffff1673ffffffffffffffffffffffffffffffffffffffff163373ffffffffffffffffffffffffffffffffffffffff1614611508576040517f08c379a00000000000000000000000000000000000000000000000000000000081526004016114ff90612791565b60405180910390fd5b600a546009541061154e576040517f08c379a0000000000000000000000000000000000000000000000000000000008152600401611545906127f9565b60405180910390fd5b5f60405180606001604052808581526020018481526020018381525090505f600160095461157c919061249b565b90508160015f8381526020019081526020015f205f820151815f0190816115a3919061225a565b5060208201518160010190816115b9919061225a565b506040820151816002015590505060095f8154809291906115d990612356565b91905055505050505050565b5f600190505f600190505b600954811161174e575f60035f3373ffffffffffffffffffffffffffffffffffffffff1673ffffffffffffffffffffffffffffffffffffffff1681526020019081526020015f205f8381526020019081526020015f205490505f81111561173a575f6040518060a001604052808581526020018481526020018381526020015f151581526020015f151581525090508060025f3373ffffffffffffffffffffffffffffffffffffffff1673ffffffffffffffffffffffffffffffffffffffff1681526020019081526020015f205f8681526020019081526020015f205f820151815f015560208201518160010155604082015181600201556060820151816003015f6101000a81548160ff02191690831515021790555060808201518160030160016101000a81548160ff021916908315150217905550905050838061173590612356565b945050505b50808061174690612356565b9150506115f0565b505f600190505b60095481116117c2575f60035f3373ffffffffffffffffffffffffffffffffffffffff1673ffffffffffffffffffffffffffffffffffffffff1681526020019081526020015f205f8381526020019081526020015f208190555080806117ba90612356565b915050611755565b507ff6f21bda482268b6851cb7d134c9ef42acd2e610afc2ce82688cd2799adacca3336001836117f29190612817565b604051611800929190612720565b60405180910390a150565b5f811161184d576040517f08c379a000000000000000000000000000000000000000000000000000000000815260040161184490612415565b60405180910390fd5b5f60035f3373ffffffffffffffffffffffffffffffffffffffff1673ffffffffffffffffffffffffffffffffffffffff1681526020019081526020015f205f8481526020019081526020015f20549050818110156118e0576040517f08c379a00000000000000000000000000000000000000000000000000000000081526004016118d7906128ba565b60405180910390fd5b8160035f3373ffffffffffffffffffffffffffffffffffffffff1673ffffffffffffffffffffffffffffffffffffffff1681526020019081526020015f205f8581526020019081526020015f205f82825461193b9190612817565b92505081905550505050565b5f604051905090565b5f80fd5b5f80fd5b5f80fd5b5f80fd5b5f601f19601f8301169050919050565b7f4e487b71000000000000000000000000000000000000000000000000000000005f52604160045260245ffd5b6119a682611960565b810181811067ffffffffffffffff821117156119c5576119c4611970565b5b80604052505050565b5f6119d7611947565b90506119e3828261199d565b919050565b5f67ffffffffffffffff821115611a0257611a01611970565b5b611a0b82611960565b9050602081019050919050565b828183375f83830152505050565b5f611a38611a33846119e8565b6119ce565b905082815260208101848484011115611a5457611a5361195c565b5b611a5f848285611a18565b509392505050565b5f82601f830112611a7b57611a7a611958565b5b8135611a8b848260208601611a26565b91505092915050565b5f819050919050565b611aa681611a94565b8114611ab0575f80fd5b50565b5f81359050611ac181611a9d565b92915050565b5f8060408385031215611add57611adc611950565b5b5f83013567ffffffffffffffff811115611afa57611af9611954565b5b611b0685828601611a67565b9250506020611b1785828601611ab3565b9150509250929050565b5f60208284031215611b3657611b35611950565b5b5f82013567ffffffffffffffff811115611b5357611b52611954565b5b611b5f84828501611a67565b91505092915050565b5f8060408385031215611b7e57611b7d611950565b5b5f611b8b85828601611ab3565b9250506020611b9c85828601611ab3565b9150509250929050565b5f805f60608486031215611bbd57611bbc611950565b5b5f611bca86828701611ab3565b935050602084013567ffffffffffffffff811115611beb57611bea611954565b5b611bf786828701611a67565b9250506040611c0886828701611ab3565b9150509250925092565b5f81519050919050565b5f82825260208201905092915050565b5f5b83811015611c49578082015181840152602081019050611c2e565b5f8484015250505050565b5f611c5e82611c12565b611c688185611c1c565b9350611c78818560208601611c2c565b611c8181611960565b840191505092915050565b611c9581611a94565b82525050565b5f73ffffffffffffffffffffffffffffffffffffffff82169050919050565b5f611cc482611c9b565b9050919050565b611cd481611cba565b82525050565b5f6060820190508181035f830152611cf28186611c54565b9050611d016020830185611c8c565b611d0e6040830184611ccb565b949350505050565b5f60208284031215611d2b57611d2a611950565b5b5f611d3884828501611ab3565b91505092915050565b5f6060820190508181035f830152611d598186611c54565b90508181036020830152611d6d8185611c54565b9050611d7c6040830184611c8c565b949350505050565b611d8d81611cba565b8114611d97575f80fd5b50565b5f81359050611da881611d84565b92915050565b5f8060408385031215611dc457611dc3611950565b5b5f611dd185828601611d9a565b9250506020611de285828601611ab3565b9150509250929050565b5f8115159050919050565b611e0081611dec565b82525050565b5f60a082019050611e195f830188611c8c565b611e266020830187611c8c565b611e336040830186611c8c565b611e406060830185611df7565b611e4d6080830184611df7565b9695505050505050565b5f602082019050611e6a5f830184611ccb565b92915050565b5f602082019050611e835f830184611c8c565b92915050565b5f60208284031215611e9e57611e9d611950565b5b5f611eab84828501611d9a565b91505092915050565b5f6040820190508181035f830152611ecc8185611c54565b9050611edb6020830184611c8c565b9392505050565b5f805f60608486031215611ef957611ef8611950565b5b5f84013567ffffffffffffffff811115611f1657611f15611954565b5b611f2286828701611a67565b935050602084013567ffffffffffffffff811115611f4357611f42611954565b5b611f4f86828701611a67565b9250506040611f6086828701611ab3565b9150509250925092565b7f4b756c6c616e696369207a6174656e206d65766375742e0000000000000000005f82015250565b5f611f9e601783611c1c565b9150611fa982611f6a565b602082019050919050565b5f6020820190508181035f830152611fcb81611f92565b9050919050565b7f4d616b73696d756d206b756c6c616e696369207361796973696e6120756c61735f8201527f696c64692e000000000000000000000000000000000000000000000000000000602082015250565b5f61202c602583611c1c565b915061203782611fd2565b604082019050919050565b5f6020820190508181035f83015261205981612020565b9050919050565b7f4e487b71000000000000000000000000000000000000000000000000000000005f52602260045260245ffd5b5f60028204905060018216806120a457607f821691505b6020821081036120b7576120b6612060565b5b50919050565b5f819050815f5260205f209050919050565b5f6020601f8301049050919050565b5f82821b905092915050565b5f600883026121197fffffffffffffffffffffffffffffffffffffffffffffffffffffffffffffffff826120de565b61212386836120de565b95508019841693508086168417925050509392505050565b5f819050919050565b5f61215e61215961215484611a94565b61213b565b611a94565b9050919050565b5f819050919050565b61217783612144565b61218b61218382612165565b8484546120ea565b825550505050565b5f90565b61219f612193565b6121aa81848461216e565b505050565b5b818110156121cd576121c25f82612197565b6001810190506121b0565b5050565b601f821115612212576121e3816120bd565b6121ec846120cf565b810160208510156121fb578190505b61220f612207856120cf565b8301826121af565b50505b505050565b5f82821c905092915050565b5f6122325f1984600802612217565b1980831691505092915050565b5f61224a8383612223565b9150826002028217905092915050565b61226382611c12565b67ffffffffffffffff81111561227c5761227b611970565b5b612286825461208d565b6122918282856121d1565b5f60209050601f8311600181146122c2575f84156122b0578287015190505b6122ba858261223f565b865550612321565b601f1984166122d0866120bd565b5f5b828110156122f7578489015182556001820191506020850194506020810190506122d2565b868310156123145784890151612310601f891682612223565b8355505b6001600288020188555050505b505050505050565b7f4e487b71000000000000000000000000000000000000000000000000000000005f52601160045260245ffd5b5f61236082611a94565b91507fffffffffffffffffffffffffffffffffffffffffffffffffffffffffffffffff820361239257612391612329565b5b600182019050919050565b5f6040820190506123b05f830185611ccb565b81810360208301526123c28184611c54565b90509392505050565b7f476563657273697a206d696b7461722e000000000000000000000000000000005f82015250565b5f6123ff601083611c1c565b915061240a826123cb565b602082019050919050565b5f6020820190508181035f83015261242c816123f3565b9050919050565b7f476563657273697a207572756e2049442773692e0000000000000000000000005f82015250565b5f612467601483611c1c565b915061247282612433565b602082019050919050565b5f6020820190508181035f8301526124948161245b565b9050919050565b5f6124a582611a94565b91506124b083611a94565b92508282019050808211156124c8576124c7612329565b5b92915050565b7f476563657273697a2064656765726c656e6469726d652e0000000000000000005f82015250565b5f612502601783611c1c565b915061250d826124ce565b602082019050919050565b5f6020820190508181035f83015261252f816124f6565b9050919050565b5f6080820190506125495f830187611ccb565b6125566020830186611c8c565b81810360408301526125688185611c54565b90506125776060830184611c8c565b95945050505050565b7f4b756c6c616e6963692062756c756e616d6164692e00000000000000000000005f82015250565b5f6125b4601583611c1c565b91506125bf82612580565b602082019050919050565b5f6020820190508181035f8301526125e1816125a8565b9050919050565b7f476563657273697a20736970617269732049442773692e0000000000000000005f82015250565b5f61261c601783611c1c565b9150612627826125e8565b602082019050919050565b5f6020820190508181035f83015261264981612610565b9050919050565b7f536970617269732062756c756e616d6164692e000000000000000000000000005f82015250565b5f612684601383611c1c565b915061268f82612650565b602082019050919050565b5f6020820190508181035f8301526126b181612678565b9050919050565b7f53697061726973207a6174656e2069616465206564696c6d69732e00000000005f82015250565b5f6126ec601b83611c1c565b91506126f7826126b8565b602082019050919050565b5f6020820190508181035f830152612719816126e0565b9050919050565b5f6040820190506127335f830185611ccb565b6127406020830184611c8c565b9392505050565b7f59616c6e697a636120796f6e6574696369657220657269736562696c69722e005f82015250565b5f61277b601f83611c1c565b915061278682612747565b602082019050919050565b5f6020820190508181035f8301526127a88161276f565b9050919050565b7f4d616b73696d756d207572756e207361796973696e6120756c6173696c64692e5f82015250565b5f6127e3602083611c1c565b91506127ee826127af565b602082019050919050565b5f6020820190508181035f830152612810816127d7565b9050919050565b5f61282182611a94565b915061282c83611a94565b925082820390508181111561284457612843612329565b5b92915050565b7f536570657474652079657465726c69207572756e2062756c756e6d616d616b745f8201527f616469722e000000000000000000000000000000000000000000000000000000602082015250565b5f6128a4602583611c1c565b91506128af8261284a565b604082019050919050565b5f6020820190508181035f8301526128d181612898565b905091905056fea2646970667358221220875b731ecd15a8f6336d7152c51b32164dfcb19214c53a7858ec9e6ec720e5fd64736f6c63430008140033",
  "immutableReferences": {},
  "source": "// SPDX-License-Identifier: MIT\npragma solidity ^0.8.0;\n\ncontract e_commercedApp {\n    event NewUser(address userAddress, string username);\n    event OrderPlaced(address userAddress, uint256 orderId);\n    event OrderReturned(address userAddress, uint256 orderId);\n    event OrderRefunded(address userAddress, uint256 orderId);\n    event ProductSharedOnSocialMedia(address userAddress, string productUrl);\n    event ProductReviewed(address userAddress, uint256 productId, string comment, uint256 rating);\n\n    struct User {\n        string username;\n        uint256 age;\n        address walletAddress;\n    }\n\n    struct Order {\n        uint256 orderId;\n        uint256 productId;\n        uint256 quantity;\n        bool isReturned;\n        bool isRefunded;\n    }\n\n    struct Product {\n        string name;\n        string description;\n        uint256 price;\n    }\n\n    mapping(address => User) public users;\n    mapping(uint256 => Product) public products;\n    mapping(address => mapping(uint256 => Order)) public userOrders;\n    mapping(address => mapping(uint256 => uint256)) public userCart;\n    mapping(address => mapping(uint256 => uint256)) public userDiscounts;\n    mapping(address => mapping(uint256 => Review)) public productReviews;\n\n    address public owner;\n    uint256 public totalUsers;\n    uint256 public maxUsers = 1000;\n    uint256 public totalProducts;\n    uint256 public maxProducts = 1000;\n\n    modifier onlyOwner() {\n        require(msg.sender == owner, \"Yalnizca yoneticier erisebilir.\");\n        _;\n    }\n\n    constructor() {\n        owner = msg.sender;\n    }\n\n    function addUser(string memory _username, uint256 _age) public {\n        require(users[msg.sender].walletAddress != msg.sender, \"Kullanici zaten mevcut.\");\n        require(totalUsers < maxUsers, \"Maksimum kullanici sayisina ulasildi.\");\n\n        User memory newUser = User({\n            username: _username,\n            age: _age,\n            walletAddress: msg.sender\n        });\n\n        users[msg.sender] = newUser;\n        totalUsers++;\n\n        emit NewUser(msg.sender, _username);\n    }\n\n    function getUserInfo() public view returns (string memory, uint256, address) {\n        require(users[msg.sender].walletAddress == msg.sender, \"Kullanici bulunamadi.\");\n\n        User memory currentUser = users[msg.sender];\n        return (currentUser.username, currentUser.age, currentUser.walletAddress);\n    }\n\n    function addProduct(string memory _name, string memory _description, uint256 _price) public onlyOwner {\n        require(totalProducts < maxProducts, \"Maksimum urun sayisina ulasildi.\");\n\n        Product memory newProduct = Product({\n            name: _name,\n            description: _description,\n            price: _price\n        });\n\n        uint256 productId = totalProducts + 1;\n        products[productId] = newProduct;\n        totalProducts++;\n    }\n\n    function getProductInfo(uint256 _productId) public view returns (string memory, string memory, uint256) {\n        require(_productId <= totalProducts, \"Gecersiz urun ID'si.\");\n\n        Product memory currentProduct = products[_productId];\n        return (currentProduct.name, currentProduct.description, currentProduct.price);\n    }\n\n    function addToCart(uint256 _productId, uint256 _quantity) public {\n        require(_quantity > 0, \"Gecersiz miktar.\");\n        require(_productId <= totalProducts, \"Gecersiz urun ID'si.\");\n\n        userCart[msg.sender][_productId] += _quantity;\n    }\n\n    function removeFromCart(uint256 _productId, uint256 _quantity) public {\n        require(_quantity > 0, \"Gecersiz miktar.\");\n\n        uint256 currentQuantity = userCart[msg.sender][_productId];\n        require(currentQuantity >= _quantity, \"Sepette yeterli urun bulunmamaktadir.\");\n\n        userCart[msg.sender][_productId] -= _quantity;\n    }\n\n    function placeOrder() public {\n        // Sepetin ieriini kontrol et ve siparii olutur\n        // rnein: Sipari ID'si ve dier sipari bilgilerini kaydet\n        // Sipari oluturulduunda sepeti temizle\n\n        uint256 orderId = 1; // Sipari ID'sini rnek olarak 1 olarak kabul edelim\n\n        // Sepetteki rnleri dolaarak siparii olutur\n        for (uint256 i = 1; i <= totalProducts; i++) {\n            uint256 quantity = userCart[msg.sender][i];\n            if (quantity > 0) {\n                Order memory newOrder = Order({\n                    orderId: orderId,\n                    productId: i,\n                    quantity: quantity,\n                    isReturned: false,\n                    isRefunded: false\n                });\n\n                userOrders[msg.sender][orderId] = newOrder;\n                orderId++;\n            }\n        }\n\n        // Sepeti temizle\n        for (uint256 i = 1; i <= totalProducts; i++) {\n            userCart[msg.sender][i] = 0;\n        }\n\n        emit OrderPlaced(msg.sender, orderId - 1);\n    }\n\n    function returnOrder(uint256 _orderId) public {\n        // Siparii iade et\n        // rnein: ade durumunu iaretle ve ilgili alanlar gncelle\n\n        require(_orderId > 0, \"Gecersiz siparis ID'si.\");\n        require(userOrders[msg.sender][_orderId].orderId == _orderId, \"Siparis bulunamadi.\");\n        require(!userOrders[msg.sender][_orderId].isReturned, \"Siparis zaten iade edilmis.\");\n\n        userOrders[msg.sender][_orderId].isReturned = true;\n\n        emit OrderReturned(msg.sender, _orderId);\n    }\n\n    function refundOrder(uint256 _orderId) public {\n        // Siparii iade et\n        // rnein: ade durumunu iaretle, deme iadesi yap ve ilgili alanlar gncelle\n\n        require(_orderId > 0, \"Gecersiz siparis ID'si.\");\n        require(userOrders[msg.sender][_orderId].orderId == _orderId, \"Siparis bulunamadi.\");\n        require(!userOrders[msg.sender][_orderId].isRefunded, \"Siparis zaten iade edilmis.\");\n\n        userOrders[msg.sender][_orderId].isRefunded = true;\n\n        // deme iadesi gerekletir\n        // rnein: Kullancnn deme salaycsyla entegre ederek deme iadesini gerekletir\n\n        emit OrderRefunded(msg.sender, _orderId);\n    }\n\n    function shareProductOnSocialMedia(string memory _productUrl) public {\n        // rn sosyal medyada payla\n        // rnein: rn URL'sini kullanarak paylam gerekletir\n\n        emit ProductSharedOnSocialMedia(msg.sender, _productUrl);\n    }\n\n    struct Review {\n        string comment;\n        uint256 rating;\n    }\n\n    function addProductReview(uint256 _productId, string memory _comment, uint256 _rating) public {\n        require(_productId <= totalProducts, \"Gecersiz urun ID'si.\");\n        require(_rating >= 1 && _rating <= 5, \"Gecersiz degerlendirme.\");\n\n        Review memory newReview = Review({\n            comment: _comment,\n            rating: _rating\n        });\n\n        productReviews[msg.sender][_productId] = newReview;\n\n        emit ProductReviewed(msg.sender, _productId, _comment, _rating);\n    }\n}\n",
  "sourcePath": "/Users/bahadirsamur/Desktop/e-commerce-web3/contracts/e_commercedApp.sol",
  "compiler": {
    "name": "solc",
    "version": "0.8.20+commit.a1b79de6.Emscripten.clang"
  },
  "schemaVersion": "3.4.14",
  "updatedAt": "2023-07-09T13:02:31.912Z",
  "devdoc": {
    "kind": "dev",
    "methods": {},
    "version": 1
  },
  "userdoc": {
    "kind": "user",
    "methods": {},
    "version": 1
  }
}